{
  "_format": "hh-sol-artifact-1",
  "contractName": "WalletManager",
  "sourceName": "contracts/WalletManager.sol",
  "abi": [
    {
      "inputs": [
        {
          "internalType": "address",
          "name": "_aethToken",
          "type": "address"
        }
      ],
      "stateMutability": "nonpayable",
      "type": "constructor"
    },
    {
      "inputs": [
        {
          "internalType": "address",
          "name": "owner",
          "type": "address"
        }
      ],
      "name": "OwnableInvalidOwner",
      "type": "error"
    },
    {
      "inputs": [
        {
          "internalType": "address",
          "name": "account",
          "type": "address"
        }
      ],
      "name": "OwnableUnauthorizedAccount",
      "type": "error"
    },
    {
      "inputs": [],
      "name": "ReentrancyGuardReentrantCall",
      "type": "error"
    },
    {
      "anonymous": false,
      "inputs": [
        {
          "indexed": true,
          "internalType": "address",
          "name": "user",
          "type": "address"
        },
        {
          "indexed": false,
          "internalType": "uint256",
          "name": "amount",
          "type": "uint256"
        }
      ],
      "name": "AethDeposited",
      "type": "event"
    },
    {
      "anonymous": false,
      "inputs": [
        {
          "indexed": true,
          "internalType": "address",
          "name": "user",
          "type": "address"
        },
        {
          "indexed": false,
          "internalType": "uint256",
          "name": "amount",
          "type": "uint256"
        },
        {
          "indexed": false,
          "internalType": "uint256",
          "name": "fee",
          "type": "uint256"
        }
      ],
      "name": "AethWithdrawn",
      "type": "event"
    },
    {
      "anonymous": false,
      "inputs": [
        {
          "indexed": true,
          "internalType": "address",
          "name": "owner",
          "type": "address"
        },
        {
          "indexed": false,
          "internalType": "uint256",
          "name": "aethFees",
          "type": "uint256"
        },
        {
          "indexed": false,
          "internalType": "uint256",
          "name": "ronFees",
          "type": "uint256"
        }
      ],
      "name": "FeesWithdrawn",
      "type": "event"
    },
    {
      "anonymous": false,
      "inputs": [
        {
          "indexed": true,
          "internalType": "address",
          "name": "previousOwner",
          "type": "address"
        },
        {
          "indexed": true,
          "internalType": "address",
          "name": "newOwner",
          "type": "address"
        }
      ],
      "name": "OwnershipTransferred",
      "type": "event"
    },
    {
      "anonymous": false,
      "inputs": [
        {
          "indexed": true,
          "internalType": "address",
          "name": "user",
          "type": "address"
        },
        {
          "indexed": false,
          "internalType": "uint256",
          "name": "amount",
          "type": "uint256"
        }
      ],
      "name": "RonDeposited",
      "type": "event"
    },
    {
      "anonymous": false,
      "inputs": [
        {
          "indexed": true,
          "internalType": "address",
          "name": "user",
          "type": "address"
        },
        {
          "indexed": false,
          "internalType": "uint256",
          "name": "amount",
          "type": "uint256"
        }
      ],
      "name": "RonWithdrawn",
      "type": "event"
    },
    {
      "inputs": [],
      "name": "AETH_WITHDRAWAL_FEE",
      "outputs": [
        {
          "internalType": "uint256",
          "name": "",
          "type": "uint256"
        }
      ],
      "stateMutability": "view",
      "type": "function"
    },
    {
      "inputs": [],
      "name": "FEE_DENOMINATOR",
      "outputs": [
        {
          "internalType": "uint256",
          "name": "",
          "type": "uint256"
        }
      ],
      "stateMutability": "view",
      "type": "function"
    },
    {
      "inputs": [
        {
          "internalType": "address",
          "name": "",
          "type": "address"
        }
      ],
      "name": "aethDeposits",
      "outputs": [
        {
          "internalType": "uint256",
          "name": "",
          "type": "uint256"
        }
      ],
      "stateMutability": "view",
      "type": "function"
    },
    {
      "inputs": [],
      "name": "aethToken",
      "outputs": [
        {
          "internalType": "contract IERC20",
          "name": "",
          "type": "address"
        }
      ],
      "stateMutability": "view",
      "type": "function"
    },
    {
      "inputs": [],
      "name": "collectedAethFees",
      "outputs": [
        {
          "internalType": "uint256",
          "name": "",
          "type": "uint256"
        }
      ],
      "stateMutability": "view",
      "type": "function"
    },
    {
      "inputs": [],
      "name": "collectedRonFees",
      "outputs": [
        {
          "internalType": "uint256",
          "name": "",
          "type": "uint256"
        }
      ],
      "stateMutability": "view",
      "type": "function"
    },
    {
      "inputs": [
        {
          "internalType": "uint256",
          "name": "amount",
          "type": "uint256"
        }
      ],
      "name": "depositAeth",
      "outputs": [],
      "stateMutability": "nonpayable",
      "type": "function"
    },
    {
      "inputs": [],
      "name": "depositRon",
      "outputs": [],
      "stateMutability": "payable",
      "type": "function"
    },
    {
      "inputs": [],
      "name": "emergencyWithdraw",
      "outputs": [],
      "stateMutability": "nonpayable",
      "type": "function"
    },
    {
      "inputs": [
        {
          "internalType": "address",
          "name": "user",
          "type": "address"
        }
      ],
      "name": "getBalances",
      "outputs": [
        {
          "internalType": "uint256",
          "name": "aethBalance",
          "type": "uint256"
        },
        {
          "internalType": "uint256",
          "name": "ronBalance",
          "type": "uint256"
        }
      ],
      "stateMutability": "view",
      "type": "function"
    },
    {
      "inputs": [],
      "name": "owner",
      "outputs": [
        {
          "internalType": "address",
          "name": "",
          "type": "address"
        }
      ],
      "stateMutability": "view",
      "type": "function"
    },
    {
      "inputs": [],
      "name": "renounceOwnership",
      "outputs": [],
      "stateMutability": "nonpayable",
      "type": "function"
    },
    {
      "inputs": [
        {
          "internalType": "address",
          "name": "",
          "type": "address"
        }
      ],
      "name": "ronDeposits",
      "outputs": [
        {
          "internalType": "uint256",
          "name": "",
          "type": "uint256"
        }
      ],
      "stateMutability": "view",
      "type": "function"
    },
    {
      "inputs": [
        {
          "internalType": "address",
          "name": "newOwner",
          "type": "address"
        }
      ],
      "name": "transferOwnership",
      "outputs": [],
      "stateMutability": "nonpayable",
      "type": "function"
    },
    {
      "inputs": [
        {
          "internalType": "uint256",
          "name": "amount",
          "type": "uint256"
        }
      ],
      "name": "withdrawAeth",
      "outputs": [],
      "stateMutability": "nonpayable",
      "type": "function"
    },
    {
      "inputs": [],
      "name": "withdrawFees",
      "outputs": [],
      "stateMutability": "nonpayable",
      "type": "function"
    },
    {
      "inputs": [
        {
          "internalType": "uint256",
          "name": "amount",
          "type": "uint256"
        }
      ],
      "name": "withdrawRon",
      "outputs": [],
      "stateMutability": "nonpayable",
      "type": "function"
    },
    {
      "stateMutability": "payable",
      "type": "receive"
    }
  ],
  "bytecode": "0x608060405234801561001057600080fd5b5060405161105d38038061105d83398101604081905261002f91610132565b6001600055338061005b57604051631e4fbdf760e01b8152600060048201526024015b60405180910390fd5b610064816100e0565b506001600160a01b0381166100bb5760405162461bcd60e51b815260206004820152601560248201527f496e76616c696420746f6b656e206164647265737300000000000000000000006044820152606401610052565b600280546001600160a01b0319166001600160a01b0392909216919091179055610162565b600180546001600160a01b038381166001600160a01b0319831681179093556040519116919082907f8be0079c531659141344cd1fd0a4f28419497f9722a3daafe3b4186f6b6457e090600090a35050565b60006020828403121561014457600080fd5b81516001600160a01b038116811461015b57600080fd5b9392505050565b610eec806101716000396000f3fe6080604052600436106101025760003560e01c8063a202083311610095578063d73792a911610064578063d73792a914610307578063d9089f381461031d578063db2e21bc1461034a578063ec6bb3a61461035f578063f2fde38b1461037f57600080fd5b8063a202083314610267578063c84aae1714610287578063d1803b91146102df578063d3938102146102e757600080fd5b806360ae490b116100d157806360ae490b146101d35780636ca8fd11146101f3578063715018a6146102205780638da5cb5b1461023557600080fd5b80633f11306214610167578063476343ee1461019057806352e02776146101a757806353bc8a35146101bd57600080fd5b36610162573360009081526004602052604081208054349290610126908490610d6d565b909155505060405134815233907f5a618c6ca39d5561c41d0ea10d9b1eb31570c6aadb433ddf039933c362faac709060200160405180910390a2005b600080fd5b34801561017357600080fd5b5061017d60065481565b6040519081526020015b60405180910390f35b34801561019c57600080fd5b506101a561039f565b005b3480156101b357600080fd5b5061017d6101f481565b3480156101c957600080fd5b5061017d60055481565b3480156101df57600080fd5b506101a56101ee366004610d86565b610599565b3480156101ff57600080fd5b5061017d61020e366004610d9f565b60036020526000908152604090205481565b34801561022c57600080fd5b506101a56106be565b34801561024157600080fd5b506001546001600160a01b03165b6040516001600160a01b039091168152602001610187565b34801561027357600080fd5b506101a5610282366004610d86565b6106d2565b34801561029357600080fd5b506102ca6102a2366004610d9f565b6001600160a01b03166000908152600360209081526040808320546004909252909120549091565b60408051928352602083019190915201610187565b6101a561081c565b3480156102f357600080fd5b506101a5610302366004610d86565b6108a7565b34801561031357600080fd5b5061017d61271081565b34801561032957600080fd5b5061017d610338366004610d9f565b60046020526000908152604090205481565b34801561035657600080fd5b506101a5610a68565b34801561036b57600080fd5b5060025461024f906001600160a01b031681565b34801561038b57600080fd5b506101a561039a366004610d9f565b610c73565b6103a7610cae565b600580546006805460009384905592905590811561049b576002546001600160a01b031663a9059cbb6103e26001546001600160a01b031690565b6040516001600160e01b031960e084901b1681526001600160a01b039091166004820152602481018590526044016020604051808303816000875af115801561042f573d6000803e3d6000fd5b505050506040513d601f19601f820116820180604052508101906104539190610dcf565b61049b5760405162461bcd60e51b815260206004820152601460248201527310515512081d1c985b9cd9995c8819985a5b195960621b60448201526064015b60405180910390fd5b801561054d5760006104b56001546001600160a01b031690565b6001600160a01b03168260405160006040518083038185875af1925050503d80600081146104ff576040519150601f19603f3d011682016040523d82523d6000602084013e610504565b606091505b505090508061054b5760405162461bcd60e51b81526020600482015260136024820152721493d3881d1c985b9cd9995c8819985a5b1959606a1b6044820152606401610492565b505b60015460408051848152602081018490526001600160a01b03909216917fdeb5099d7943aa2b4c1142e5d53d2f7636aa8f7bd130ec79816f151572bcdf45910160405180910390a25050565b6105a1610cdb565b600081116105c15760405162461bcd60e51b815260040161049290610df1565b6002546040516323b872dd60e01b8152336004820152306024820152604481018390526001600160a01b03909116906323b872dd906064016020604051808303816000875af1158015610618573d6000803e3d6000fd5b505050506040513d601f19601f8201168201806040525081019061063c9190610dcf565b6106585760405162461bcd60e51b815260040161049290610e28565b3360009081526003602052604081208054839290610677908490610d6d565b909155505060405181815233907f7d3c6ec2474d1843572c79cca2dec475bd65b5435f8489ceee2266b0e0ab9fc39060200160405180910390a26106bb6001600055565b50565b6106c6610cae565b6106d06000610d05565b565b6106da610cdb565b600081116106fa5760405162461bcd60e51b815260040161049290610df1565b336000908152600460205260409020548111156107505760405162461bcd60e51b8152602060048201526014602482015273496e73756666696369656e742062616c616e636560601b6044820152606401610492565b336000908152600460205260408120805483929061076f908490610e51565b9091555050604051600090339083908381818185875af1925050503d80600081146107b6576040519150601f19603f3d011682016040523d82523d6000602084013e6107bb565b606091505b50509050806107dc5760405162461bcd60e51b815260040161049290610e28565b60405182815233907fced4546c9b73c898b079278791fdd020490d88d57a5a469935d5e4ba8403f5259060200160405180910390a2506106bb6001600055565b610824610cdb565b600034116108445760405162461bcd60e51b815260040161049290610df1565b3360009081526004602052604081208054349290610863908490610d6d565b909155505060405134815233907f5a618c6ca39d5561c41d0ea10d9b1eb31570c6aadb433ddf039933c362faac709060200160405180910390a26106d06001600055565b6108af610cdb565b600081116108cf5760405162461bcd60e51b815260040161049290610df1565b336000908152600360205260409020548111156109255760405162461bcd60e51b8152602060048201526014602482015273496e73756666696369656e742062616c616e636560601b6044820152606401610492565b60006127106109366101f484610e64565b6109409190610e7b565b9050600061094e8284610e51565b33600090815260036020526040812080549293508592909190610972908490610e51565b92505081905550816005600082825461098b9190610d6d565b909155505060025460405163a9059cbb60e01b8152336004820152602481018390526001600160a01b039091169063a9059cbb906044016020604051808303816000875af11580156109e1573d6000803e3d6000fd5b505050506040513d601f19601f82011682018060405250810190610a059190610dcf565b610a215760405162461bcd60e51b815260040161049290610e28565b604080518281526020810184905233917fa81053828b3bcabd35f941d26e18bdeddf792ec674c3b0b96391ce4b04f2a145910160405180910390a250506106bb6001600055565b610a70610cae565b6002546040516370a0823160e01b81523060048201526000916001600160a01b0316906370a0823190602401602060405180830381865afa158015610ab9573d6000803e3d6000fd5b505050506040513d601f19601f82011682018060405250810190610add9190610e9d565b9050478115610bbd576002546001600160a01b031663a9059cbb610b096001546001600160a01b031690565b6040516001600160e01b031960e084901b1681526001600160a01b039091166004820152602481018590526044016020604051808303816000875af1158015610b56573d6000803e3d6000fd5b505050506040513d601f19601f82011682018060405250810190610b7a9190610dcf565b610bbd5760405162461bcd60e51b815260206004820152601460248201527310515512081d1c985b9cd9995c8819985a5b195960621b6044820152606401610492565b8015610c6f576000610bd76001546001600160a01b031690565b6001600160a01b03168260405160006040518083038185875af1925050503d8060008114610c21576040519150601f19603f3d011682016040523d82523d6000602084013e610c26565b606091505b5050905080610c6d5760405162461bcd60e51b81526020600482015260136024820152721493d3881d1c985b9cd9995c8819985a5b1959606a1b6044820152606401610492565b505b5050565b610c7b610cae565b6001600160a01b038116610ca557604051631e4fbdf760e01b815260006004820152602401610492565b6106bb81610d05565b6001546001600160a01b031633146106d05760405163118cdaa760e01b8152336004820152602401610492565b600260005403610cfe57604051633ee5aeb560e01b815260040160405180910390fd5b6002600055565b600180546001600160a01b038381166001600160a01b0319831681179093556040519116919082907f8be0079c531659141344cd1fd0a4f28419497f9722a3daafe3b4186f6b6457e090600090a35050565b634e487b7160e01b600052601160045260246000fd5b80820180821115610d8057610d80610d57565b92915050565b600060208284031215610d9857600080fd5b5035919050565b600060208284031215610db157600080fd5b81356001600160a01b0381168114610dc857600080fd5b9392505050565b600060208284031215610de157600080fd5b81518015158114610dc857600080fd5b6020808252601d908201527f416d6f756e74206d7573742062652067726561746572207468616e2030000000604082015260600190565b6020808252600f908201526e151c985b9cd9995c8819985a5b1959608a1b604082015260600190565b81810381811115610d8057610d80610d57565b8082028115828204841417610d8057610d80610d57565b600082610e9857634e487b7160e01b600052601260045260246000fd5b500490565b600060208284031215610eaf57600080fd5b505191905056fea264697066735822122063641e8e52dd8d13ae96d92e0281a09f0be8ea16037387e576c74d64620cea9c64736f6c63430008140033",
  "linkReferences": {},
  "deployedLinkReferences": {}
}